{
  "_format": "hh-sol-artifact-1",
  "contractName": "StardustGeneration",
  "sourceName": "contracts/StardustGeneration.sol",
  "abi": [
    {
      "inputs": [
        {
          "internalType": "string",
          "name": "_name",
          "type": "string"
        },
        {
          "internalType": "string",
          "name": "_symbol",
          "type": "string"
        },
        {
          "internalType": "string",
          "name": "_initBaseTokenURI",
          "type": "string"
        },
        {
          "internalType": "string",
          "name": "_metaSuffix",
          "type": "string"
        },
        {
          "internalType": "bytes32",
          "name": "_merkleRoot",
          "type": "bytes32"
        },
        {
          "internalType": "address[]",
          "name": "_withdrawAddress",
          "type": "address[]"
        }
      ],
      "stateMutability": "nonpayable",
      "type": "constructor"
    },
    {
      "inputs": [],
      "name": "ApprovalCallerNotOwnerNorApproved",
      "type": "error"
    },
    {
      "inputs": [],
      "name": "ApprovalQueryForNonexistentToken",
      "type": "error"
    },
    {
      "inputs": [],
      "name": "ApprovalToCurrentOwner",
      "type": "error"
    },
    {
      "inputs": [],
      "name": "ApproveToCaller",
      "type": "error"
    },
    {
      "inputs": [],
      "name": "BalanceQueryForZeroAddress",
      "type": "error"
    },
    {
      "inputs": [],
      "name": "InvalidQueryRange",
      "type": "error"
    },
    {
      "inputs": [],
      "name": "MintToZeroAddress",
      "type": "error"
    },
    {
      "inputs": [],
      "name": "MintZeroQuantity",
      "type": "error"
    },
    {
      "inputs": [],
      "name": "OwnerQueryForNonexistentToken",
      "type": "error"
    },
    {
      "inputs": [],
      "name": "TransferCallerNotOwnerNorApproved",
      "type": "error"
    },
    {
      "inputs": [],
      "name": "TransferFromIncorrectOwner",
      "type": "error"
    },
    {
      "inputs": [],
      "name": "TransferToNonERC721ReceiverImplementer",
      "type": "error"
    },
    {
      "inputs": [],
      "name": "TransferToZeroAddress",
      "type": "error"
    },
    {
      "inputs": [],
      "name": "URIQueryForNonexistentToken",
      "type": "error"
    },
    {
      "anonymous": false,
      "inputs": [
        {
          "indexed": true,
          "internalType": "address",
          "name": "owner",
          "type": "address"
        },
        {
          "indexed": true,
          "internalType": "address",
          "name": "approved",
          "type": "address"
        },
        {
          "indexed": true,
          "internalType": "uint256",
          "name": "tokenId",
          "type": "uint256"
        }
      ],
      "name": "Approval",
      "type": "event"
    },
    {
      "anonymous": false,
      "inputs": [
        {
          "indexed": true,
          "internalType": "address",
          "name": "owner",
          "type": "address"
        },
        {
          "indexed": true,
          "internalType": "address",
          "name": "operator",
          "type": "address"
        },
        {
          "indexed": false,
          "internalType": "bool",
          "name": "approved",
          "type": "bool"
        }
      ],
      "name": "ApprovalForAll",
      "type": "event"
    },
    {
      "anonymous": false,
      "inputs": [
        {
          "indexed": true,
          "internalType": "address",
          "name": "previousOwner",
          "type": "address"
        },
        {
          "indexed": true,
          "internalType": "address",
          "name": "newOwner",
          "type": "address"
        }
      ],
      "name": "OwnershipTransferred",
      "type": "event"
    },
    {
      "anonymous": false,
      "inputs": [
        {
          "indexed": false,
          "internalType": "uint256",
          "name": "totalSent",
          "type": "uint256"
        }
      ],
      "name": "StardustAirdrop",
      "type": "event"
    },
    {
      "anonymous": false,
      "inputs": [
        {
          "indexed": true,
          "internalType": "address",
          "name": "from",
          "type": "address"
        },
        {
          "indexed": true,
          "internalType": "address",
          "name": "to",
          "type": "address"
        },
        {
          "indexed": true,
          "internalType": "uint256",
          "name": "tokenId",
          "type": "uint256"
        }
      ],
      "name": "Transfer",
      "type": "event"
    },
    {
      "anonymous": false,
      "inputs": [
        {
          "indexed": true,
          "internalType": "address",
          "name": "to",
          "type": "address"
        },
        {
          "indexed": false,
          "internalType": "uint256",
          "name": "amount",
          "type": "uint256"
        }
      ],
      "name": "Withdraw",
      "type": "event"
    },
    {
      "inputs": [],
      "name": "MAX_RESERVELIST",
      "outputs": [
        {
          "internalType": "uint16",
          "name": "",
          "type": "uint16"
        }
      ],
      "stateMutability": "view",
      "type": "function"
    },
    {
      "inputs": [],
      "name": "MAX_STARLIST",
      "outputs": [
        {
          "internalType": "uint16",
          "name": "",
          "type": "uint16"
        }
      ],
      "stateMutability": "view",
      "type": "function"
    },
    {
      "inputs": [],
      "name": "MAX_SUPPLY",
      "outputs": [
        {
          "internalType": "uint256",
          "name": "",
          "type": "uint256"
        }
      ],
      "stateMutability": "view",
      "type": "function"
    },
    {
      "inputs": [
        {
          "internalType": "address[]",
          "name": "_airdropAddresses",
          "type": "address[]"
        },
        {
          "internalType": "uint256",
          "name": "_mintAmount",
          "type": "uint256"
        }
      ],
      "name": "airdrop",
      "outputs": [],
      "stateMutability": "nonpayable",
      "type": "function"
    },
    {
      "inputs": [
        {
          "internalType": "address",
          "name": "to",
          "type": "address"
        },
        {
          "internalType": "uint256",
          "name": "tokenId",
          "type": "uint256"
        }
      ],
      "name": "approve",
      "outputs": [],
      "stateMutability": "nonpayable",
      "type": "function"
    },
    {
      "inputs": [
        {
          "internalType": "address",
          "name": "owner",
          "type": "address"
        }
      ],
      "name": "balanceOf",
      "outputs": [
        {
          "internalType": "uint256",
          "name": "",
          "type": "uint256"
        }
      ],
      "stateMutability": "view",
      "type": "function"
    },
    {
      "inputs": [],
      "name": "baseTokenURI",
      "outputs": [
        {
          "internalType": "string",
          "name": "",
          "type": "string"
        }
      ],
      "stateMutability": "view",
      "type": "function"
    },
    {
      "inputs": [],
      "name": "cost",
      "outputs": [
        {
          "internalType": "uint256",
          "name": "",
          "type": "uint256"
        }
      ],
      "stateMutability": "view",
      "type": "function"
    },
    {
      "inputs": [
        {
          "internalType": "uint256",
          "name": "tokenId",
          "type": "uint256"
        }
      ],
      "name": "explicitOwnershipOf",
      "outputs": [
        {
          "components": [
            {
              "internalType": "address",
              "name": "addr",
              "type": "address"
            },
            {
              "internalType": "uint64",
              "name": "startTimestamp",
              "type": "uint64"
            },
            {
              "internalType": "bool",
              "name": "burned",
              "type": "bool"
            }
          ],
          "internalType": "struct IERC721A.TokenOwnership",
          "name": "",
          "type": "tuple"
        }
      ],
      "stateMutability": "view",
      "type": "function"
    },
    {
      "inputs": [
        {
          "internalType": "uint256[]",
          "name": "tokenIds",
          "type": "uint256[]"
        }
      ],
      "name": "explicitOwnershipsOf",
      "outputs": [
        {
          "components": [
            {
              "internalType": "address",
              "name": "addr",
              "type": "address"
            },
            {
              "internalType": "uint64",
              "name": "startTimestamp",
              "type": "uint64"
            },
            {
              "internalType": "bool",
              "name": "burned",
              "type": "bool"
            }
          ],
          "internalType": "struct IERC721A.TokenOwnership[]",
          "name": "",
          "type": "tuple[]"
        }
      ],
      "stateMutability": "view",
      "type": "function"
    },
    {
      "inputs": [
        {
          "internalType": "uint256",
          "name": "tokenId",
          "type": "uint256"
        }
      ],
      "name": "getApproved",
      "outputs": [
        {
          "internalType": "address",
          "name": "",
          "type": "address"
        }
      ],
      "stateMutability": "view",
      "type": "function"
    },
    {
      "inputs": [
        {
          "internalType": "address",
          "name": "owner",
          "type": "address"
        },
        {
          "internalType": "address",
          "name": "operator",
          "type": "address"
        }
      ],
      "name": "isApprovedForAll",
      "outputs": [
        {
          "internalType": "bool",
          "name": "",
          "type": "bool"
        }
      ],
      "stateMutability": "view",
      "type": "function"
    },
    {
      "inputs": [],
      "name": "isRevealed",
      "outputs": [
        {
          "internalType": "bool",
          "name": "",
          "type": "bool"
        }
      ],
      "stateMutability": "view",
      "type": "function"
    },
    {
      "inputs": [],
      "name": "maxPublic",
      "outputs": [
        {
          "internalType": "uint16",
          "name": "",
          "type": "uint16"
        }
      ],
      "stateMutability": "view",
      "type": "function"
    },
    {
      "inputs": [],
      "name": "maxTotalPerWallet",
      "outputs": [
        {
          "internalType": "uint16",
          "name": "",
          "type": "uint16"
        }
      ],
      "stateMutability": "view",
      "type": "function"
    },
    {
      "inputs": [],
      "name": "merkleRoot",
      "outputs": [
        {
          "internalType": "bytes32",
          "name": "",
          "type": "bytes32"
        }
      ],
      "stateMutability": "view",
      "type": "function"
    },
    {
      "inputs": [],
      "name": "metaSuffix",
      "outputs": [
        {
          "internalType": "string",
          "name": "",
          "type": "string"
        }
      ],
      "stateMutability": "view",
      "type": "function"
    },
    {
      "inputs": [
        {
          "internalType": "uint256",
          "name": "_mintAmount",
          "type": "uint256"
        }
      ],
      "name": "mintPublic",
      "outputs": [],
      "stateMutability": "payable",
      "type": "function"
    },
    {
      "inputs": [
        {
          "internalType": "bytes32[]",
          "name": "_merkleProof",
          "type": "bytes32[]"
        },
        {
          "internalType": "uint256",
          "name": "_mintAmount",
          "type": "uint256"
        }
      ],
      "name": "mintReservelist",
      "outputs": [],
      "stateMutability": "payable",
      "type": "function"
    },
    {
      "inputs": [
        {
          "internalType": "bytes32[]",
          "name": "_merkleProof",
          "type": "bytes32[]"
        },
        {
          "internalType": "uint256",
          "name": "_mintAmount",
          "type": "uint256"
        }
      ],
      "name": "mintStarlist",
      "outputs": [],
      "stateMutability": "payable",
      "type": "function"
    },
    {
      "inputs": [],
      "name": "ms",
      "outputs": [
        {
          "internalType": "address",
          "name": "",
          "type": "address"
        }
      ],
      "stateMutability": "view",
      "type": "function"
    },
    {
      "inputs": [],
      "name": "name",
      "outputs": [
        {
          "internalType": "string",
          "name": "",
          "type": "string"
        }
      ],
      "stateMutability": "view",
      "type": "function"
    },
    {
      "inputs": [],
      "name": "owner",
      "outputs": [
        {
          "internalType": "address",
          "name": "",
          "type": "address"
        }
      ],
      "stateMutability": "view",
      "type": "function"
    },
    {
      "inputs": [
        {
          "internalType": "uint256",
          "name": "tokenId",
          "type": "uint256"
        }
      ],
      "name": "ownerOf",
      "outputs": [
        {
          "internalType": "address",
          "name": "",
          "type": "address"
        }
      ],
      "stateMutability": "view",
      "type": "function"
    },
    {
      "inputs": [],
      "name": "publicOpen",
      "outputs": [
        {
          "internalType": "bool",
          "name": "",
          "type": "bool"
        }
      ],
      "stateMutability": "view",
      "type": "function"
    },
    {
      "inputs": [],
      "name": "renounceOwnership",
      "outputs": [],
      "stateMutability": "nonpayable",
      "type": "function"
    },
    {
      "inputs": [],
      "name": "reservelistOpen",
      "outputs": [
        {
          "internalType": "bool",
          "name": "",
          "type": "bool"
        }
      ],
      "stateMutability": "view",
      "type": "function"
    },
    {
      "inputs": [
        {
          "internalType": "address",
          "name": "from",
          "type": "address"
        },
        {
          "internalType": "address",
          "name": "to",
          "type": "address"
        },
        {
          "internalType": "uint256",
          "name": "tokenId",
          "type": "uint256"
        }
      ],
      "name": "safeTransferFrom",
      "outputs": [],
      "stateMutability": "nonpayable",
      "type": "function"
    },
    {
      "inputs": [
        {
          "internalType": "address",
          "name": "from",
          "type": "address"
        },
        {
          "internalType": "address",
          "name": "to",
          "type": "address"
        },
        {
          "internalType": "uint256",
          "name": "tokenId",
          "type": "uint256"
        },
        {
          "internalType": "bytes",
          "name": "_data",
          "type": "bytes"
        }
      ],
      "name": "safeTransferFrom",
      "outputs": [],
      "stateMutability": "nonpayable",
      "type": "function"
    },
    {
      "inputs": [
        {
          "internalType": "address",
          "name": "operator",
          "type": "address"
        },
        {
          "internalType": "bool",
          "name": "approved",
          "type": "bool"
        }
      ],
      "name": "setApprovalForAll",
      "outputs": [],
      "stateMutability": "nonpayable",
      "type": "function"
    },
    {
      "inputs": [
        {
          "internalType": "string",
          "name": "_baseTokenURI",
          "type": "string"
        }
      ],
      "name": "setBaseTokenURI",
      "outputs": [],
      "stateMutability": "nonpayable",
      "type": "function"
    },
    {
      "inputs": [
        {
          "internalType": "uint256",
          "name": "_newCost",
          "type": "uint256"
        }
      ],
      "name": "setCost",
      "outputs": [],
      "stateMutability": "nonpayable",
      "type": "function"
    },
    {
      "inputs": [
        {
          "internalType": "uint16",
          "name": "_amount",
          "type": "uint16"
        }
      ],
      "name": "setMaxPublic",
      "outputs": [],
      "stateMutability": "nonpayable",
      "type": "function"
    },
    {
      "inputs": [
        {
          "internalType": "uint16",
          "name": "_amount",
          "type": "uint16"
        }
      ],
      "name": "setMaxTotalPerWallet",
      "outputs": [],
      "stateMutability": "nonpayable",
      "type": "function"
    },
    {
      "inputs": [
        {
          "internalType": "bytes32",
          "name": "_root",
          "type": "bytes32"
        }
      ],
      "name": "setMerkleRoot",
      "outputs": [],
      "stateMutability": "nonpayable",
      "type": "function"
    },
    {
      "inputs": [
        {
          "internalType": "string",
          "name": "_newSuffix",
          "type": "string"
        }
      ],
      "name": "setMetaSuffix",
      "outputs": [],
      "stateMutability": "nonpayable",
      "type": "function"
    },
    {
      "inputs": [
        {
          "internalType": "address[]",
          "name": "newAddress",
          "type": "address[]"
        }
      ],
      "name": "setWithdrawAddress",
      "outputs": [],
      "stateMutability": "nonpayable",
      "type": "function"
    },
    {
      "inputs": [],
      "name": "starlistOpen",
      "outputs": [
        {
          "internalType": "bool",
          "name": "",
          "type": "bool"
        }
      ],
      "stateMutability": "view",
      "type": "function"
    },
    {
      "inputs": [
        {
          "internalType": "bytes4",
          "name": "interfaceId",
          "type": "bytes4"
        }
      ],
      "name": "supportsInterface",
      "outputs": [
        {
          "internalType": "bool",
          "name": "",
          "type": "bool"
        }
      ],
      "stateMutability": "view",
      "type": "function"
    },
    {
      "inputs": [],
      "name": "symbol",
      "outputs": [
        {
          "internalType": "string",
          "name": "",
          "type": "string"
        }
      ],
      "stateMutability": "view",
      "type": "function"
    },
    {
      "inputs": [],
      "name": "togglePause",
      "outputs": [],
      "stateMutability": "nonpayable",
      "type": "function"
    },
    {
      "inputs": [
        {
          "internalType": "uint256",
          "name": "_mintingPhase",
          "type": "uint256"
        }
      ],
      "name": "togglePhase",
      "outputs": [],
      "stateMutability": "nonpayable",
      "type": "function"
    },
    {
      "inputs": [
        {
          "internalType": "string",
          "name": "_revealedMetadataURI",
          "type": "string"
        }
      ],
      "name": "toggleReveal",
      "outputs": [],
      "stateMutability": "nonpayable",
      "type": "function"
    },
    {
      "inputs": [
        {
          "internalType": "uint256",
          "name": "tokenId",
          "type": "uint256"
        }
      ],
      "name": "tokenURI",
      "outputs": [
        {
          "internalType": "string",
          "name": "",
          "type": "string"
        }
      ],
      "stateMutability": "view",
      "type": "function"
    },
    {
      "inputs": [
        {
          "internalType": "address",
          "name": "owner",
          "type": "address"
        }
      ],
      "name": "tokensOfOwner",
      "outputs": [
        {
          "internalType": "uint256[]",
          "name": "",
          "type": "uint256[]"
        }
      ],
      "stateMutability": "view",
      "type": "function"
    },
    {
      "inputs": [
        {
          "internalType": "address",
          "name": "owner",
          "type": "address"
        },
        {
          "internalType": "uint256",
          "name": "start",
          "type": "uint256"
        },
        {
          "internalType": "uint256",
          "name": "stop",
          "type": "uint256"
        }
      ],
      "name": "tokensOfOwnerIn",
      "outputs": [
        {
          "internalType": "uint256[]",
          "name": "",
          "type": "uint256[]"
        }
      ],
      "stateMutability": "view",
      "type": "function"
    },
    {
      "inputs": [],
      "name": "totalSupply",
      "outputs": [
        {
          "internalType": "uint256",
          "name": "",
          "type": "uint256"
        }
      ],
      "stateMutability": "view",
      "type": "function"
    },
    {
      "inputs": [
        {
          "internalType": "address",
          "name": "from",
          "type": "address"
        },
        {
          "internalType": "address",
          "name": "to",
          "type": "address"
        },
        {
          "internalType": "uint256",
          "name": "tokenId",
          "type": "uint256"
        }
      ],
      "name": "transferFrom",
      "outputs": [],
      "stateMutability": "nonpayable",
      "type": "function"
    },
    {
      "inputs": [
        {
          "internalType": "address",
          "name": "newOwner",
          "type": "address"
        }
      ],
      "name": "transferOwnership",
      "outputs": [],
      "stateMutability": "nonpayable",
      "type": "function"
    },
    {
      "inputs": [],
      "name": "withdrawStardust",
      "outputs": [],
      "stateMutability": "nonpayable",
      "type": "function"
    }
  ],
  "bytecode": "0x6080604052600d8054620e000763ffffffff1991821617909155668e1bc9bf040000600e55600f805490911690553480156200003a57600080fd5b5060405162003594380380620035948339810160408190526200005d9162000402565b85518690869062000076906002906020850190620001df565b5080516200008c906003906020840190620001df565b50506001600055506200009f33620000e7565b8351620000b490600b906020870190620001df565b508251620000ca90600a906020860190620001df565b50600c829055620000db8162000139565b5050505050506200053d565b600880546001600160a01b038381166001600160a01b0319831681179093556040519116919082907f8be0079c531659141344cd1fd0a4f28419497f9722a3daafe3b4186f6b6457e090600090a35050565b6008546001600160a01b03163314620001985760405162461bcd60e51b815260206004820181905260248201527f4f776e61626c653a2063616c6c6572206973206e6f7420746865206f776e6572604482015260640160405180910390fd5b80600081518110620001ae57620001ae620004eb565b6020026020010151600960006101000a8154816001600160a01b0302191690836001600160a01b0316021790555050565b828054620001ed9062000501565b90600052602060002090601f0160209004810192826200021157600085556200025c565b82601f106200022c57805160ff19168380011785556200025c565b828001600101855582156200025c579182015b828111156200025c5782518255916020019190600101906200023f565b506200026a9291506200026e565b5090565b5b808211156200026a57600081556001016200026f565b634e487b7160e01b600052604160045260246000fd5b604051601f8201601f191681016001600160401b0381118282101715620002c657620002c662000285565b604052919050565b600082601f830112620002e057600080fd5b81516001600160401b03811115620002fc57620002fc62000285565b602062000312601f8301601f191682016200029b565b82815285828487010111156200032757600080fd5b60005b83811015620003475785810183015182820184015282016200032a565b83811115620003595760008385840101525b5095945050505050565b600082601f8301126200037557600080fd5b815160206001600160401b0382111562000393576200039362000285565b8160051b620003a48282016200029b565b9283528481018201928281019087851115620003bf57600080fd5b83870192505b84831015620003f75782516001600160a01b0381168114620003e75760008081fd5b82529183019190830190620003c5565b979650505050505050565b60008060008060008060c087890312156200041c57600080fd5b86516001600160401b03808211156200043457600080fd5b620004428a838b01620002ce565b975060208901519150808211156200045957600080fd5b620004678a838b01620002ce565b965060408901519150808211156200047e57600080fd5b6200048c8a838b01620002ce565b95506060890151915080821115620004a357600080fd5b620004b18a838b01620002ce565b94506080890151935060a0890151915080821115620004cf57600080fd5b50620004de89828a0162000363565b9150509295509295509295565b634e487b7160e01b600052603260045260246000fd5b600181811c908216806200051657607f821691505b6020821081036200053757634e487b7160e01b600052602260045260246000fd5b50919050565b613047806200054d6000396000f3fe6080604052600436106102c95760003560e01c80637dc4297511610175578063c23dc68f116100dc578063d547cfb711610095578063e985e9c51161006f578063e985e9c51461084b578063efd0cbf91461086b578063f2fde38b1461087e578063fe1e30231461089e57600080fd5b8063d547cfb714610816578063dcb7aa7514610421578063dd300e611461082b57600080fd5b8063c23dc68f14610767578063c271f03914610794578063c4ae3168146107ae578063c6fc0a98146107c3578063c87b56dd146107e3578063cc83e4551461080357600080fd5b8063a0b2d57f1161012e578063a0b2d57f146106a6578063a22cb465146106c6578063a7b8ab91146106e6578063b88d4fde14610707578063ba70c51514610727578063c204642c1461074757600080fd5b80637dc42975146105f65780638462151c146106115780638d4aa9a21461063e5780638da5cb5b1461065357806395d89b411461067157806399a2557a1461068657600080fd5b806342842e0e116102345780635d8c2efd116101ed57806370a08231116101c757806370a0823114610581578063715018a6146105a15780637ae70879146105b65780637cb64759146105d657600080fd5b80635d8c2efd146105215780636352211e146105415780636bf4fbd71461056157600080fd5b806342842e0e1461045f57806344a0d68a1461047f5780635305e3651461049f57806354214f69146104be578063571b7aac146104df5780635bbb2177146104f457600080fd5b806318160ddd1161028657806318160ddd146103b657806323b872dd146103cb5780632eb4a7ab146103eb57806330176e131461040157806330d370e81461042157806332cb6b0c1461044957600080fd5b806301ffc9a7146102ce57806306fdde0314610303578063081812fc14610325578063095ea7b31461035d5780630e2eb1f61461037f57806313faede614610392575b600080fd5b3480156102da57600080fd5b506102ee6102e93660046126cd565b6108be565b60405190151581526020015b60405180910390f35b34801561030f57600080fd5b50610318610910565b6040516102fa9190612742565b34801561033157600080fd5b50610345610340366004612755565b6109a2565b6040516001600160a01b0390911681526020016102fa565b34801561036957600080fd5b5061037d610378366004612785565b6109e6565b005b61037d61038d3660046127fa565b610ab8565b34801561039e57600080fd5b506103a8600e5481565b6040519081526020016102fa565b3480156103c257600080fd5b506103a8610cc0565b3480156103d757600080fd5b5061037d6103e6366004612845565b610cce565b3480156103f757600080fd5b506103a8600c5481565b34801561040d57600080fd5b5061037d61041c366004612881565b610cd9565b34801561042d57600080fd5b50610436600781565b60405161ffff90911681526020016102fa565b34801561045557600080fd5b506103a8611e6181565b34801561046b57600080fd5b5061037d61047a366004612845565b610d0f565b34801561048b57600080fd5b5061037d61049a366004612755565b610d2a565b3480156104ab57600080fd5b50600f546102ee90610100900460ff1681565b3480156104ca57600080fd5b50600f546102ee906301000000900460ff1681565b3480156104eb57600080fd5b50610318610d59565b34801561050057600080fd5b5061051461050f36600461295b565b610de7565b6040516102fa91906129f0565b34801561052d57600080fd5b5061037d61053c366004612881565b610ead565b34801561054d57600080fd5b5061034561055c366004612755565b610ef6565b34801561056d57600080fd5b5061037d61057c366004612a5a565b610f01565b34801561058d57600080fd5b506103a861059c366004612a7e565b610f43565b3480156105ad57600080fd5b5061037d610f91565b3480156105c257600080fd5b5061037d6105d1366004612881565b610fc7565b3480156105e257600080fd5b5061037d6105f1366004612755565b610ffd565b34801561060257600080fd5b50600d546104369061ffff1681565b34801561061d57600080fd5b5061063161062c366004612a7e565b61102c565b6040516102fa9190612a99565b34801561064a57600080fd5b5061037d61112d565b34801561065f57600080fd5b506008546001600160a01b0316610345565b34801561067d57600080fd5b50610318611259565b34801561069257600080fd5b506106316106a1366004612ad1565b611268565b3480156106b257600080fd5b50600954610345906001600160a01b031681565b3480156106d257600080fd5b5061037d6106e1366004612b04565b6113ef565b3480156106f257600080fd5b50600d546104369062010000900461ffff1681565b34801561071357600080fd5b5061037d610722366004612b40565b611484565b34801561073357600080fd5b50600f546102ee9062010000900460ff1681565b34801561075357600080fd5b5061037d6107623660046127fa565b6114ce565b34801561077357600080fd5b50610787610782366004612755565b611600565b6040516102fa9190612bff565b3480156107a057600080fd5b50600f546102ee9060ff1681565b3480156107ba57600080fd5b5061037d611675565b3480156107cf57600080fd5b5061037d6107de366004612c34565b6116ad565b3480156107ef57600080fd5b506103186107fe366004612755565b61171b565b61037d6108113660046127fa565b611846565b34801561082257600080fd5b50610318611a1c565b34801561083757600080fd5b5061037d610846366004612a5a565b611a29565b34801561085757600080fd5b506102ee610866366004612cc0565b611a73565b61037d610879366004612755565b611aa1565b34801561088a57600080fd5b5061037d610899366004612a7e565b611d6e565b3480156108aa57600080fd5b5061037d6108b9366004612755565b611e09565b60006301ffc9a760e01b6001600160e01b0319831614806108ef57506380ac58cd60e01b6001600160e01b03198316145b8061090a5750635b5e139f60e01b6001600160e01b03198316145b92915050565b60606002805461091f90612cf3565b80601f016020809104026020016040519081016040528092919081815260200182805461094b90612cf3565b80156109985780601f1061096d57610100808354040283529160200191610998565b820191906000526020600020905b81548152906001019060200180831161097b57829003601f168201915b5050505050905090565b60006109ad82611e90565b6109ca576040516333d1c03960e21b815260040160405180910390fd5b506000908152600660205260409020546001600160a01b031690565b60006109f182611ec5565b9050806001600160a01b0316836001600160a01b031603610a255760405163250fdee360e21b815260040160405180910390fd5b336001600160a01b03821614610a5c57610a3f8133611a73565b610a5c576040516367d9dca160e11b815260040160405180910390fd5b60008281526006602052604080822080546001600160a01b0319166001600160a01b0387811691821790925591518593918516917f8c5be1e5ebec7d5bd14f71427d1e84f3dd0314c0f7b2291e5b200ac8c7c3b92591a4505050565b600f5460ff161515600114610b0c5760405162461bcd60e51b81526020600482015260156024820152742a34329039ba30b93634b9ba103737ba1037b832b760591b60448201526064015b60405180910390fd5b610b51610b1833611f34565b848480806020026020016040519081016040528093929190818152602001838360200280828437600092019190915250611f7392505050565b610b8d5760405162461bcd60e51b815260206004820152600d60248201526c24b73b30b634b210383937b7b360991b6044820152606401610b03565b60008111610bad5760405162461bcd60e51b8152600401610b0390612d2d565b3360009081526010602052604090205460079082011115610c2b5760405162461bcd60e51b815260206004820152603260248201527f596f7572206d696e7420616d6f756e74206578636565647320746865206d6178604482015271081b5a5b9d081c195c881cdd185c9b1a5cdd60721b6064820152608401610b03565b611e6181610c37610cc0565b011115610c565760405162461bcd60e51b8152600401610b0390612d76565b80600e54023414610c9c5760405162461bcd60e51b815260206004820152601060248201526f496e7375666669656e742066756e647360801b6044820152606401610b03565b336000818152601060205260409020805483019055610cbb9082611f82565b505050565b600154600054036000190190565b610cbb838383611f8c565b6008546001600160a01b03163314610d035760405162461bcd60e51b8152600401610b0390612dbf565b610cbb600b838361261e565b610cbb83838360405180602001604052806000815250611484565b6008546001600160a01b03163314610d545760405162461bcd60e51b8152600401610b0390612dbf565b600e55565b600a8054610d6690612cf3565b80601f0160208091040260200160405190810160405280929190818152602001828054610d9290612cf3565b8015610ddf5780601f10610db457610100808354040283529160200191610ddf565b820191906000526020600020905b815481529060010190602001808311610dc257829003601f168201915b505050505081565b80516060906000816001600160401b03811115610e0657610e066128f2565b604051908082528060200260200182016040528015610e5157816020015b6040805160608101825260008082526020808301829052928201528252600019909201910181610e245790505b50905060005b828114610ea557610e80858281518110610e7357610e73612df4565b6020026020010151611600565b828281518110610e9257610e92612df4565b6020908102919091010152600101610e57565b509392505050565b6008546001600160a01b03163314610ed75760405162461bcd60e51b8152600401610b0390612dbf565b600f805463ff00000019166301000000179055610cbb600b838361261e565b600061090a82611ec5565b6008546001600160a01b03163314610f2b5760405162461bcd60e51b8152600401610b0390612dbf565b600d805461ffff191661ffff92909216919091179055565b60006001600160a01b038216610f6c576040516323d3ad8160e21b815260040160405180910390fd5b506001600160a01b03166000908152600560205260409020546001600160401b031690565b6008546001600160a01b03163314610fbb5760405162461bcd60e51b8152600401610b0390612dbf565b610fc56000612133565b565b6008546001600160a01b03163314610ff15760405162461bcd60e51b8152600401610b0390612dbf565b610cbb600a838361261e565b6008546001600160a01b031633146110275760405162461bcd60e51b8152600401610b0390612dbf565b600c55565b6060600080600061103c85610f43565b90506000816001600160401b03811115611058576110586128f2565b604051908082528060200260200182016040528015611081578160200160208202803683370190505b5090506110a7604080516060810182526000808252602082018190529181019190915290565b60015b838614611121576110ba81612185565b915081604001516111195781516001600160a01b0316156110da57815194505b876001600160a01b0316856001600160a01b031603611119578083878060010198508151811061110c5761110c612df4565b6020026020010181815250505b6001016110aa565b50909695505050505050565b6008546001600160a01b031633146111575760405162461bcd60e51b8152600401610b0390612dbf565b478061116257600080fd5b6009546040516000916001600160a01b03169083908381818185875af1925050503d80600081146111af576040519150601f19603f3d011682016040523d82523d6000602084013e6111b4565b606091505b50509050806112135760405162461bcd60e51b815260206004820152602560248201527f4e6f74207375636365737366756c2c20746865207769746864726177616c2066604482015264185a5b195960da1b6064820152608401610b03565b6009546040518381526001600160a01b03909116907f884edad9ce6fa2440d8a54cc123490eb96d2768479d49ff9c7366125a94243649060200160405180910390a25050565b60606003805461091f90612cf3565b606081831061128a57604051631960ccad60e11b815260040160405180910390fd5b60008061129660005490565b905060018510156112a657600194505b808411156112b2578093505b60006112bd87610f43565b9050848610156112dc57858503818110156112d6578091505b506112e0565b5060005b6000816001600160401b038111156112fa576112fa6128f2565b604051908082528060200260200182016040528015611323578160200160208202803683370190505b509050816000036113395793506113e892505050565b600061134488611600565b905060008160400151611355575080515b885b8881141580156113675750848714155b156113dc5761137581612185565b925082604001516113d45782516001600160a01b03161561139557825191505b8a6001600160a01b0316826001600160a01b0316036113d457808488806001019950815181106113c7576113c7612df4565b6020026020010181815250505b600101611357565b50505092835250909150505b9392505050565b336001600160a01b038316036114185760405163b06307db60e01b815260040160405180910390fd5b3360008181526007602090815260408083206001600160a01b03871680855290835292819020805460ff191686151590811790915590519081529192917f17307eab39ab6107e8899845ad3d59bd9653f200f220920489ca2b5937696c31910160405180910390a35050565b61148f848484611f8c565b6001600160a01b0383163b156114c8576114ab848484846121ba565b6114c8576040516368d2bf6b60e11b815260040160405180910390fd5b50505050565b6008546001600160a01b031633146114f85760405162461bcd60e51b8152600401610b0390612dbf565b60006115048284612e20565b905060005b838110156115c657600085858381811061152557611525612df4565b905060200201602081019061153a9190612a7e565b9050611e61611547610cc0565b8686020111156115b35760405162461bcd60e51b815260206004820152603160248201527f41697264726f7070696e672074686973206d616e7920776f756c642065786365604482015270656420746865206d617820737570706c7960781b6064820152608401610b03565b6115bd8185611f82565b50600101611509565b506040518181527fe3095edaab269860b35776d6cecdf84b0a94fe5d61197fea1b6c9f8d75bf88df9060200160405180910390a150505050565b6040805160608082018352600080835260208084018290528385018290528451928301855281835282018190529281019290925290600183108061164657506000548310155b156116515792915050565b61165a83612185565b905080604001511561166c5792915050565b6113e8836122a6565b6008546001600160a01b0316331461169f5760405162461bcd60e51b8152600401610b0390612dbf565b600f805462ffffff19169055565b6008546001600160a01b031633146116d75760405162461bcd60e51b8152600401610b0390612dbf565b806000815181106116ea576116ea612df4565b6020026020010151600960006101000a8154816001600160a01b0302191690836001600160a01b0316021790555050565b606061172682611e90565b61178c5760405162461bcd60e51b815260206004820152603160248201527f4552433732314d657461646174613a2055524920717565727920666f722061206044820152703737b732bc34b9ba32b73a103a37b5b2b760791b6064820152608401610b03565b600f546301000000900460ff161515600103611801576000600b80546117b190612cf3565b9050116117cd576040518060200160405280600081525061090a565b600b6117d8836122d4565b600a6040516020016117ec93929190612ed8565b60405160208183030381529060405292915050565b6000600b805461181090612cf3565b90501161182c576040518060200160405280600081525061090a565b600b600a6040516020016117ec929190612f00565b919050565b600f5460ff6101009091041615156001146118a35760405162461bcd60e51b815260206004820181905260248201527f54686520726573657276656c697374206d696e74206973206e6f74206f70656e6044820152606401610b03565b6118af610b1833611f34565b6118eb5760405162461bcd60e51b815260206004820152600d60248201526c24b73b30b634b210383937b7b360991b6044820152606401610b03565b6000811161190b5760405162461bcd60e51b8152600401610b0390612d2d565b336000908152601160205260409020546007908201111561198c5760405162461bcd60e51b815260206004820152603560248201527f596f7572206d696e7420616d6f756e74206578636565647320746865206d6178604482015274081b5a5b9d081c195c881c995cd95c9d995b1a5cdd605a1b6064820152608401610b03565b611e6181611998610cc0565b0111156119b75760405162461bcd60e51b8152600401610b0390612d76565b80600e540234146119fd5760405162461bcd60e51b815260206004820152601060248201526f496e7375666669656e742066756e647360801b6044820152606401610b03565b336000818152601160205260409020805483019055610cbb9082611f82565b600b8054610d6690612cf3565b6008546001600160a01b03163314611a535760405162461bcd60e51b8152600401610b0390612dbf565b600d805461ffff909216620100000263ffff000019909216919091179055565b6001600160a01b03918216600090815260076020908152604080832093909416825291909152205460ff1690565b336000908152600560205260409081902054600f54911c6001600160401b03169060ff1615611b055760405162461bcd60e51b815260206004820152601060248201526f29ba30b93634b9ba1034b99037b832b760811b6044820152606401610b03565b600f54610100900460ff1615611b535760405162461bcd60e51b81526020600482015260136024820152722932b9b2b93b32b634b9ba1034b99037b832b760691b6044820152606401610b03565b600f5462010000900460ff161515600114611bb05760405162461bcd60e51b815260206004820152601760248201527f5075626c69632073616c65206973206e6f74206f70656e0000000000000000006044820152606401610b03565b60008211611bd05760405162461bcd60e51b8152600401610b0390612d2d565b600d5461ffff16821115611c445760405162461bcd60e51b815260206004820152603560248201527f596f7572206d696e7420616d6f756e74206578636565647320746865206d6178604482015274206d696e7420706572207075626c69632073616c6560581b6064820152608401610b03565b611e6182611c50610cc0565b011115611c945760405162461bcd60e51b815260206004820152601260248201527145786365656473204d617820537570706c7960701b6044820152606401610b03565b600d5462010000900461ffff168282011115611d185760405162461bcd60e51b815260206004820152603a60248201527f536f7272792c20796f752063616e74206d696e74206d6f72652c20697420657860448201527f636565647320746865207065722077616c6c657420746f74616c0000000000006064820152608401610b03565b81600e54023414611d605760405162461bcd60e51b8152602060048201526012602482015271496e73756666696369656e742066756e647360701b6044820152606401610b03565b611d6a3383611f82565b5050565b6008546001600160a01b03163314611d985760405162461bcd60e51b8152600401610b0390612dbf565b6001600160a01b038116611dfd5760405162461bcd60e51b815260206004820152602660248201527f4f776e61626c653a206e6577206f776e657220697320746865207a65726f206160448201526564647265737360d01b6064820152608401610b03565b611e0681612133565b50565b6008546001600160a01b03163314611e335760405162461bcd60e51b8152600401610b0390612dbf565b80600103611e4b57600f805460ff1916600117905550565b80600203611e6557600f805461ffff191661010017905550565b80600303611e8157600f805462ffff0019166201000017905550565b600f805462ff00001916905550565b600081600111158015611ea4575060005482105b801561090a575050600090815260046020526040902054600160e01b161590565b60008180600111611f1b57600054811015611f1b5760008181526004602052604081205490600160e01b82169003611f19575b806000036113e8575060001901600081815260046020526040902054611ef8565b505b604051636f96cda160e11b815260040160405180910390fd5b6040516bffffffffffffffffffffffff19606083901b166020820152600090603401604051602081830303815290604052805190602001209050919050565b60006113e882600c54856123d4565b611d6a82826123ea565b6000611f9782611ec5565b9050836001600160a01b0316816001600160a01b031614611fca5760405162a1148160e81b815260040160405180910390fd5b6000336001600160a01b0386161480611fe85750611fe88533611a73565b80612003575033611ff8846109a2565b6001600160a01b0316145b90508061202357604051632ce44b5f60e11b815260040160405180910390fd5b6001600160a01b03841661204a57604051633a954ecd60e21b815260040160405180910390fd5b600083815260066020908152604080832080546001600160a01b03191690556001600160a01b038881168452600583528184208054600019019055871683528083208054600101905585835260049091528120600160e11b4260a01b87178117909155831690036120eb576001830160008181526004602052604081205490036120e95760005481146120e95760008181526004602052604090208390555b505b82846001600160a01b0316866001600160a01b03167fddf252ad1be2c89b69c2b068fc378daa952ba7f163c4a11628f55a4df523b3ef60405160405180910390a45050505050565b600880546001600160a01b038381166001600160a01b0319831681179093556040519116919082907f8be0079c531659141344cd1fd0a4f28419497f9722a3daafe3b4186f6b6457e090600090a35050565b604080516060810182526000808252602082018190529181019190915260008281526004602052604090205461090a90612404565b604051630a85bd0160e11b81526000906001600160a01b0385169063150b7a02906121ef903390899088908890600401612f31565b6020604051808303816000875af192505050801561222a575060408051601f3d908101601f1916820190925261222791810190612f6e565b60015b612288573d808015612258576040519150601f19603f3d011682016040523d82523d6000602084013e61225d565b606091505b508051600003612280576040516368d2bf6b60e11b815260040160405180910390fd5b805181602001fd5b6001600160e01b031916630a85bd0160e11b1490505b949350505050565b604080516060810182526000808252602082018190529181019190915261090a6122cf83611ec5565b612404565b6060816000036122fb5750506040805180820190915260018152600360fc1b602082015290565b8160005b8115612325578061230f81612f8b565b915061231e9050600a83612fba565b91506122ff565b6000816001600160401b0381111561233f5761233f6128f2565b6040519080825280601f01601f191660200182016040528015612369576020820181803683370190505b5090505b841561229e5761237e600183612fce565b915061238b600a86612fe5565b612396906030612ff9565b60f81b8183815181106123ab576123ab612df4565b60200101906001600160f81b031916908160001a9053506123cd600a86612fba565b945061236d565b6000826123e1858461243e565b14949350505050565b611d6a8282604051806020016040528060008152506124aa565b604080516060810182526001600160a01b038316815260a083901c6001600160401b03166020820152600160e01b90921615159082015290565b600081815b8451811015610ea557600085828151811061246057612460612df4565b602002602001015190508083116124865760008381526020829052604090209250612497565b600081815260208490526040902092505b50806124a281612f8b565b915050612443565b6000546001600160a01b0384166124d357604051622e076360e81b815260040160405180910390fd5b826000036124f45760405163b562e8dd60e01b815260040160405180910390fd5b6001600160a01b03841660008181526005602090815260408083208054680100000000000000018902019055848352600490915290204260a01b86176001861460e11b1790558190818501903b156125c9575b60405182906001600160a01b038816906000907fddf252ad1be2c89b69c2b068fc378daa952ba7f163c4a11628f55a4df523b3ef908290a461259260008784806001019550876121ba565b6125af576040516368d2bf6b60e11b815260040160405180910390fd5b8082106125475782600054146125c457600080fd5b61260e565b5b6040516001830192906001600160a01b038816906000907fddf252ad1be2c89b69c2b068fc378daa952ba7f163c4a11628f55a4df523b3ef908290a48082106125ca575b5060009081556114c89085838684565b82805461262a90612cf3565b90600052602060002090601f01602090048101928261264c5760008555612692565b82601f106126655782800160ff19823516178555612692565b82800160010185558215612692579182015b82811115612692578235825591602001919060010190612677565b5061269e9291506126a2565b5090565b5b8082111561269e57600081556001016126a3565b6001600160e01b031981168114611e0657600080fd5b6000602082840312156126df57600080fd5b81356113e8816126b7565b60005b838110156127055781810151838201526020016126ed565b838111156114c85750506000910152565b6000815180845261272e8160208601602086016126ea565b601f01601f19169290920160200192915050565b6020815260006113e86020830184612716565b60006020828403121561276757600080fd5b5035919050565b80356001600160a01b038116811461184157600080fd5b6000806040838503121561279857600080fd5b6127a18361276e565b946020939093013593505050565b60008083601f8401126127c157600080fd5b5081356001600160401b038111156127d857600080fd5b6020830191508360208260051b85010111156127f357600080fd5b9250929050565b60008060006040848603121561280f57600080fd5b83356001600160401b0381111561282557600080fd5b612831868287016127af565b909790965060209590950135949350505050565b60008060006060848603121561285a57600080fd5b6128638461276e565b92506128716020850161276e565b9150604084013590509250925092565b6000806020838503121561289457600080fd5b82356001600160401b03808211156128ab57600080fd5b818501915085601f8301126128bf57600080fd5b8135818111156128ce57600080fd5b8660208285010111156128e057600080fd5b60209290920196919550909350505050565b634e487b7160e01b600052604160045260246000fd5b604051601f8201601f191681016001600160401b0381118282101715612930576129306128f2565b604052919050565b60006001600160401b03821115612951576129516128f2565b5060051b60200190565b6000602080838503121561296e57600080fd5b82356001600160401b0381111561298457600080fd5b8301601f8101851361299557600080fd5b80356129a86129a382612938565b612908565b81815260059190911b820183019083810190878311156129c757600080fd5b928401925b828410156129e5578335825292840192908401906129cc565b979650505050505050565b6020808252825182820181905260009190848201906040850190845b8181101561112157612a4783855180516001600160a01b031682526020808201516001600160401b0316908301526040908101511515910152565b9284019260609290920191600101612a0c565b600060208284031215612a6c57600080fd5b813561ffff811681146113e857600080fd5b600060208284031215612a9057600080fd5b6113e88261276e565b6020808252825182820181905260009190848201906040850190845b8181101561112157835183529284019291840191600101612ab5565b600080600060608486031215612ae657600080fd5b612aef8461276e565b95602085013595506040909401359392505050565b60008060408385031215612b1757600080fd5b612b208361276e565b915060208301358015158114612b3557600080fd5b809150509250929050565b60008060008060808587031215612b5657600080fd5b612b5f8561276e565b93506020612b6e81870161276e565b93506040860135925060608601356001600160401b0380821115612b9157600080fd5b818801915088601f830112612ba557600080fd5b813581811115612bb757612bb76128f2565b612bc9601f8201601f19168501612908565b91508082528984828501011115612bdf57600080fd5b808484018584013760008482840101525080935050505092959194509250565b81516001600160a01b031681526020808301516001600160401b0316908201526040808301511515908201526060810161090a565b60006020808385031215612c4757600080fd5b82356001600160401b03811115612c5d57600080fd5b8301601f81018513612c6e57600080fd5b8035612c7c6129a382612938565b81815260059190911b82018301908381019087831115612c9b57600080fd5b928401925b828410156129e557612cb18461276e565b82529284019290840190612ca0565b60008060408385031215612cd357600080fd5b612cdc8361276e565b9150612cea6020840161276e565b90509250929050565b600181811c90821680612d0757607f821691505b602082108103612d2757634e487b7160e01b600052602260045260246000fd5b50919050565b60208082526029908201527f596f7572206d696e7420616d6f756e742073686f756c6420626520677265617460408201526806572207468616e20360bc1b606082015260800190565b60208082526029908201527f596f7520776f756c642065786365656420746865206d617820737570706c79206040820152686f6620746f6b656e7360b81b606082015260800190565b6020808252818101527f4f776e61626c653a2063616c6c6572206973206e6f7420746865206f776e6572604082015260600190565b634e487b7160e01b600052603260045260246000fd5b634e487b7160e01b600052601160045260246000fd5b6000816000190483118215151615612e3a57612e3a612e0a565b500290565b8054600090600181811c9080831680612e5957607f831692505b60208084108203612e7a57634e487b7160e01b600052602260045260246000fd5b818015612e8e5760018114612e9f57612ecc565b60ff19861689528489019650612ecc565b60008881526020902060005b86811015612ec45781548b820152908501908301612eab565b505084890196505b50505050505092915050565b6000612ee48286612e3f565b8451612ef48183602089016126ea565b6129e581830186612e3f565b6000612f0c8285612e3f565b681c1c995c995d99585b60ba1b8152612f286009820185612e3f565b95945050505050565b6001600160a01b0385811682528416602082015260408101839052608060608201819052600090612f6490830184612716565b9695505050505050565b600060208284031215612f8057600080fd5b81516113e8816126b7565b600060018201612f9d57612f9d612e0a565b5060010190565b634e487b7160e01b600052601260045260246000fd5b600082612fc957612fc9612fa4565b500490565b600082821015612fe057612fe0612e0a565b500390565b600082612ff457612ff4612fa4565b500690565b6000821982111561300c5761300c612e0a565b50019056fea2646970667358221220fe05c89fbe95446d5a94b8ff89f39010c43bc28f9fcc1c119a74097e76f8f7b064736f6c634300080d0033",
  "linkReferences": {},
  "deployedLinkReferences": {}
}